{
	"data": {
		"bytecode": {
			"linkReferences": {},
			"object": "6080604052348015600e575f80fd5b506108778061001c5f395ff3fe608060405234801561000f575f80fd5b506004361061007b575f3560e01c8063471f7cdf11610059578063471f7cdf146100eb5780636057361d146101095780637e4539f114610125578063f2c9ecd8146101415761007b565b806306fdde031461007f578063356598051461009d57806342b7cd7a146100bb575b5f80fd5b61008761015f565b60405161009491906102ad565b60405180910390f35b6100a56101eb565b6040516100b291906102e5565b60405180910390f35b6100d560048036038101906100d09190610339565b6101f3565b6040516100e291906102e5565b60405180910390f35b6100f3610208565b60405161010091906102e5565b60405180910390f35b610123600480360381019061011e9190610339565b61020d565b005b61013f600480360381019061013a9190610490565b610216565b005b610149610229565b60405161015691906102e5565b60405180910390f35b6001805461016c90610504565b80601f016020809104026020016040519081016040528092919081815260200182805461019890610504565b80156101e35780601f106101ba576101008083540402835291602001916101e3565b820191905f5260205f20905b8154815290600101906020018083116101c657829003601f168201915b505050505081565b5f6006905090565b5f815f546102019190610561565b9050919050565b5f5481565b805f8190555050565b8060019081610225919061073f565b5050565b5f60015f54610238919061080e565b905090565b5f81519050919050565b5f82825260208201905092915050565b8281835e5f83830152505050565b5f601f19601f8301169050919050565b5f61027f8261023d565b6102898185610247565b9350610299818560208601610257565b6102a281610265565b840191505092915050565b5f6020820190508181035f8301526102c58184610275565b905092915050565b5f819050919050565b6102df816102cd565b82525050565b5f6020820190506102f85f8301846102d6565b92915050565b5f604051905090565b5f80fd5b5f80fd5b610318816102cd565b8114610322575f80fd5b50565b5f813590506103338161030f565b92915050565b5f6020828403121561034e5761034d610307565b5b5f61035b84828501610325565b91505092915050565b5f80fd5b5f80fd5b7f4e487b71000000000000000000000000000000000000000000000000000000005f52604160045260245ffd5b6103a282610265565b810181811067ffffffffffffffff821117156103c1576103c061036c565b5b80604052505050565b5f6103d36102fe565b90506103df8282610399565b919050565b5f67ffffffffffffffff8211156103fe576103fd61036c565b5b61040782610265565b9050602081019050919050565b828183375f83830152505050565b5f61043461042f846103e4565b6103ca565b9050828152602081018484840111156104505761044f610368565b5b61045b848285610414565b509392505050565b5f82601f83011261047757610476610364565b5b8135610487848260208601610422565b91505092915050565b5f602082840312156104a5576104a4610307565b5b5f82013567ffffffffffffffff8111156104c2576104c161030b565b5b6104ce84828501610463565b91505092915050565b7f4e487b71000000000000000000000000000000000000000000000000000000005f52602260045260245ffd5b5f600282049050600182168061051b57607f821691505b60208210810361052e5761052d6104d7565b5b50919050565b7f4e487b71000000000000000000000000000000000000000000000000000000005f52601160045260245ffd5b5f61056b826102cd565b9150610576836102cd565b9250828202610584816102cd565b9150828204841483151761059b5761059a610534565b5b5092915050565b5f819050815f5260205f209050919050565b5f6020601f8301049050919050565b5f82821b905092915050565b5f600883026105fe7fffffffffffffffffffffffffffffffffffffffffffffffffffffffffffffffff826105c3565b61060886836105c3565b95508019841693508086168417925050509392505050565b5f819050919050565b5f61064361063e610639846102cd565b610620565b6102cd565b9050919050565b5f819050919050565b61065c83610629565b6106706106688261064a565b8484546105cf565b825550505050565b5f90565b610684610678565b61068f818484610653565b505050565b5b818110156106b2576106a75f8261067c565b600181019050610695565b5050565b601f8211156106f7576106c8816105a2565b6106d1846105b4565b810160208510156106e0578190505b6106f46106ec856105b4565b830182610694565b50505b505050565b5f82821c905092915050565b5f6107175f19846008026106fc565b1980831691505092915050565b5f61072f8383610708565b9150826002028217905092915050565b6107488261023d565b67ffffffffffffffff8111156107615761076061036c565b5b61076b8254610504565b6107768282856106b6565b5f60209050601f8311600181146107a7575f8415610795578287015190505b61079f8582610724565b865550610806565b601f1984166107b5866105a2565b5f5b828110156107dc578489015182556001820191506020850194506020810190506107b7565b868310156107f957848901516107f5601f891682610708565b8355505b6001600288020188555050505b505050505050565b5f610818826102cd565b9150610823836102cd565b925082820190508082111561083b5761083a610534565b5b9291505056fea2646970667358221220682748bf49a3e53b1b439835376fc753d1ffbc4a253c374b7b4992173703f58c64736f6c634300081a0033",
			"opcodes": "PUSH1 0x80 PUSH1 0x40 MSTORE CALLVALUE DUP1 ISZERO PUSH1 0xE JUMPI PUSH0 DUP1 REVERT JUMPDEST POP PUSH2 0x877 DUP1 PUSH2 0x1C PUSH0 CODECOPY PUSH0 RETURN INVALID PUSH1 0x80 PUSH1 0x40 MSTORE CALLVALUE DUP1 ISZERO PUSH2 0xF JUMPI PUSH0 DUP1 REVERT JUMPDEST POP PUSH1 0x4 CALLDATASIZE LT PUSH2 0x7B JUMPI PUSH0 CALLDATALOAD PUSH1 0xE0 SHR DUP1 PUSH4 0x471F7CDF GT PUSH2 0x59 JUMPI DUP1 PUSH4 0x471F7CDF EQ PUSH2 0xEB JUMPI DUP1 PUSH4 0x6057361D EQ PUSH2 0x109 JUMPI DUP1 PUSH4 0x7E4539F1 EQ PUSH2 0x125 JUMPI DUP1 PUSH4 0xF2C9ECD8 EQ PUSH2 0x141 JUMPI PUSH2 0x7B JUMP JUMPDEST DUP1 PUSH4 0x6FDDE03 EQ PUSH2 0x7F JUMPI DUP1 PUSH4 0x35659805 EQ PUSH2 0x9D JUMPI DUP1 PUSH4 0x42B7CD7A EQ PUSH2 0xBB JUMPI JUMPDEST PUSH0 DUP1 REVERT JUMPDEST PUSH2 0x87 PUSH2 0x15F JUMP JUMPDEST PUSH1 0x40 MLOAD PUSH2 0x94 SWAP2 SWAP1 PUSH2 0x2AD JUMP JUMPDEST PUSH1 0x40 MLOAD DUP1 SWAP2 SUB SWAP1 RETURN JUMPDEST PUSH2 0xA5 PUSH2 0x1EB JUMP JUMPDEST PUSH1 0x40 MLOAD PUSH2 0xB2 SWAP2 SWAP1 PUSH2 0x2E5 JUMP JUMPDEST PUSH1 0x40 MLOAD DUP1 SWAP2 SUB SWAP1 RETURN JUMPDEST PUSH2 0xD5 PUSH1 0x4 DUP1 CALLDATASIZE SUB DUP2 ADD SWAP1 PUSH2 0xD0 SWAP2 SWAP1 PUSH2 0x339 JUMP JUMPDEST PUSH2 0x1F3 JUMP JUMPDEST PUSH1 0x40 MLOAD PUSH2 0xE2 SWAP2 SWAP1 PUSH2 0x2E5 JUMP JUMPDEST PUSH1 0x40 MLOAD DUP1 SWAP2 SUB SWAP1 RETURN JUMPDEST PUSH2 0xF3 PUSH2 0x208 JUMP JUMPDEST PUSH1 0x40 MLOAD PUSH2 0x100 SWAP2 SWAP1 PUSH2 0x2E5 JUMP JUMPDEST PUSH1 0x40 MLOAD DUP1 SWAP2 SUB SWAP1 RETURN JUMPDEST PUSH2 0x123 PUSH1 0x4 DUP1 CALLDATASIZE SUB DUP2 ADD SWAP1 PUSH2 0x11E SWAP2 SWAP1 PUSH2 0x339 JUMP JUMPDEST PUSH2 0x20D JUMP JUMPDEST STOP JUMPDEST PUSH2 0x13F PUSH1 0x4 DUP1 CALLDATASIZE SUB DUP2 ADD SWAP1 PUSH2 0x13A SWAP2 SWAP1 PUSH2 0x490 JUMP JUMPDEST PUSH2 0x216 JUMP JUMPDEST STOP JUMPDEST PUSH2 0x149 PUSH2 0x229 JUMP JUMPDEST PUSH1 0x40 MLOAD PUSH2 0x156 SWAP2 SWAP1 PUSH2 0x2E5 JUMP JUMPDEST PUSH1 0x40 MLOAD DUP1 SWAP2 SUB SWAP1 RETURN JUMPDEST PUSH1 0x1 DUP1 SLOAD PUSH2 0x16C SWAP1 PUSH2 0x504 JUMP JUMPDEST DUP1 PUSH1 0x1F ADD PUSH1 0x20 DUP1 SWAP2 DIV MUL PUSH1 0x20 ADD PUSH1 0x40 MLOAD SWAP1 DUP2 ADD PUSH1 0x40 MSTORE DUP1 SWAP3 SWAP2 SWAP1 DUP2 DUP2 MSTORE PUSH1 0x20 ADD DUP3 DUP1 SLOAD PUSH2 0x198 SWAP1 PUSH2 0x504 JUMP JUMPDEST DUP1 ISZERO PUSH2 0x1E3 JUMPI DUP1 PUSH1 0x1F LT PUSH2 0x1BA JUMPI PUSH2 0x100 DUP1 DUP4 SLOAD DIV MUL DUP4 MSTORE SWAP2 PUSH1 0x20 ADD SWAP2 PUSH2 0x1E3 JUMP JUMPDEST DUP3 ADD SWAP2 SWAP1 PUSH0 MSTORE PUSH1 0x20 PUSH0 KECCAK256 SWAP1 JUMPDEST DUP2 SLOAD DUP2 MSTORE SWAP1 PUSH1 0x1 ADD SWAP1 PUSH1 0x20 ADD DUP1 DUP4 GT PUSH2 0x1C6 JUMPI DUP3 SWAP1 SUB PUSH1 0x1F AND DUP3 ADD SWAP2 JUMPDEST POP POP POP POP POP DUP2 JUMP JUMPDEST PUSH0 PUSH1 0x6 SWAP1 POP SWAP1 JUMP JUMPDEST PUSH0 DUP2 PUSH0 SLOAD PUSH2 0x201 SWAP2 SWAP1 PUSH2 0x561 JUMP JUMPDEST SWAP1 POP SWAP2 SWAP1 POP JUMP JUMPDEST PUSH0 SLOAD DUP2 JUMP JUMPDEST DUP1 PUSH0 DUP2 SWAP1 SSTORE POP POP JUMP JUMPDEST DUP1 PUSH1 0x1 SWAP1 DUP2 PUSH2 0x225 SWAP2 SWAP1 PUSH2 0x73F JUMP JUMPDEST POP POP JUMP JUMPDEST PUSH0 PUSH1 0x1 PUSH0 SLOAD PUSH2 0x238 SWAP2 SWAP1 PUSH2 0x80E JUMP JUMPDEST SWAP1 POP SWAP1 JUMP JUMPDEST PUSH0 DUP2 MLOAD SWAP1 POP SWAP2 SWAP1 POP JUMP JUMPDEST PUSH0 DUP3 DUP3 MSTORE PUSH1 0x20 DUP3 ADD SWAP1 POP SWAP3 SWAP2 POP POP JUMP JUMPDEST DUP3 DUP2 DUP4 MCOPY PUSH0 DUP4 DUP4 ADD MSTORE POP POP POP JUMP JUMPDEST PUSH0 PUSH1 0x1F NOT PUSH1 0x1F DUP4 ADD AND SWAP1 POP SWAP2 SWAP1 POP JUMP JUMPDEST PUSH0 PUSH2 0x27F DUP3 PUSH2 0x23D JUMP JUMPDEST PUSH2 0x289 DUP2 DUP6 PUSH2 0x247 JUMP JUMPDEST SWAP4 POP PUSH2 0x299 DUP2 DUP6 PUSH1 0x20 DUP7 ADD PUSH2 0x257 JUMP JUMPDEST PUSH2 0x2A2 DUP2 PUSH2 0x265 JUMP JUMPDEST DUP5 ADD SWAP2 POP POP SWAP3 SWAP2 POP POP JUMP JUMPDEST PUSH0 PUSH1 0x20 DUP3 ADD SWAP1 POP DUP2 DUP2 SUB PUSH0 DUP4 ADD MSTORE PUSH2 0x2C5 DUP2 DUP5 PUSH2 0x275 JUMP JUMPDEST SWAP1 POP SWAP3 SWAP2 POP POP JUMP JUMPDEST PUSH0 DUP2 SWAP1 POP SWAP2 SWAP1 POP JUMP JUMPDEST PUSH2 0x2DF DUP2 PUSH2 0x2CD JUMP JUMPDEST DUP3 MSTORE POP POP JUMP JUMPDEST PUSH0 PUSH1 0x20 DUP3 ADD SWAP1 POP PUSH2 0x2F8 PUSH0 DUP4 ADD DUP5 PUSH2 0x2D6 JUMP JUMPDEST SWAP3 SWAP2 POP POP JUMP JUMPDEST PUSH0 PUSH1 0x40 MLOAD SWAP1 POP SWAP1 JUMP JUMPDEST PUSH0 DUP1 REVERT JUMPDEST PUSH0 DUP1 REVERT JUMPDEST PUSH2 0x318 DUP2 PUSH2 0x2CD JUMP JUMPDEST DUP2 EQ PUSH2 0x322 JUMPI PUSH0 DUP1 REVERT JUMPDEST POP JUMP JUMPDEST PUSH0 DUP2 CALLDATALOAD SWAP1 POP PUSH2 0x333 DUP2 PUSH2 0x30F JUMP JUMPDEST SWAP3 SWAP2 POP POP JUMP JUMPDEST PUSH0 PUSH1 0x20 DUP3 DUP5 SUB SLT ISZERO PUSH2 0x34E JUMPI PUSH2 0x34D PUSH2 0x307 JUMP JUMPDEST JUMPDEST PUSH0 PUSH2 0x35B DUP5 DUP3 DUP6 ADD PUSH2 0x325 JUMP JUMPDEST SWAP2 POP POP SWAP3 SWAP2 POP POP JUMP JUMPDEST PUSH0 DUP1 REVERT JUMPDEST PUSH0 DUP1 REVERT JUMPDEST PUSH32 0x4E487B7100000000000000000000000000000000000000000000000000000000 PUSH0 MSTORE PUSH1 0x41 PUSH1 0x4 MSTORE PUSH1 0x24 PUSH0 REVERT JUMPDEST PUSH2 0x3A2 DUP3 PUSH2 0x265 JUMP JUMPDEST DUP2 ADD DUP2 DUP2 LT PUSH8 0xFFFFFFFFFFFFFFFF DUP3 GT OR ISZERO PUSH2 0x3C1 JUMPI PUSH2 0x3C0 PUSH2 0x36C JUMP JUMPDEST JUMPDEST DUP1 PUSH1 0x40 MSTORE POP POP POP JUMP JUMPDEST PUSH0 PUSH2 0x3D3 PUSH2 0x2FE JUMP JUMPDEST SWAP1 POP PUSH2 0x3DF DUP3 DUP3 PUSH2 0x399 JUMP JUMPDEST SWAP2 SWAP1 POP JUMP JUMPDEST PUSH0 PUSH8 0xFFFFFFFFFFFFFFFF DUP3 GT ISZERO PUSH2 0x3FE JUMPI PUSH2 0x3FD PUSH2 0x36C JUMP JUMPDEST JUMPDEST PUSH2 0x407 DUP3 PUSH2 0x265 JUMP JUMPDEST SWAP1 POP PUSH1 0x20 DUP2 ADD SWAP1 POP SWAP2 SWAP1 POP JUMP JUMPDEST DUP3 DUP2 DUP4 CALLDATACOPY PUSH0 DUP4 DUP4 ADD MSTORE POP POP POP JUMP JUMPDEST PUSH0 PUSH2 0x434 PUSH2 0x42F DUP5 PUSH2 0x3E4 JUMP JUMPDEST PUSH2 0x3CA JUMP JUMPDEST SWAP1 POP DUP3 DUP2 MSTORE PUSH1 0x20 DUP2 ADD DUP5 DUP5 DUP5 ADD GT ISZERO PUSH2 0x450 JUMPI PUSH2 0x44F PUSH2 0x368 JUMP JUMPDEST JUMPDEST PUSH2 0x45B DUP5 DUP3 DUP6 PUSH2 0x414 JUMP JUMPDEST POP SWAP4 SWAP3 POP POP POP JUMP JUMPDEST PUSH0 DUP3 PUSH1 0x1F DUP4 ADD SLT PUSH2 0x477 JUMPI PUSH2 0x476 PUSH2 0x364 JUMP JUMPDEST JUMPDEST DUP2 CALLDATALOAD PUSH2 0x487 DUP5 DUP3 PUSH1 0x20 DUP7 ADD PUSH2 0x422 JUMP JUMPDEST SWAP2 POP POP SWAP3 SWAP2 POP POP JUMP JUMPDEST PUSH0 PUSH1 0x20 DUP3 DUP5 SUB SLT ISZERO PUSH2 0x4A5 JUMPI PUSH2 0x4A4 PUSH2 0x307 JUMP JUMPDEST JUMPDEST PUSH0 DUP3 ADD CALLDATALOAD PUSH8 0xFFFFFFFFFFFFFFFF DUP2 GT ISZERO PUSH2 0x4C2 JUMPI PUSH2 0x4C1 PUSH2 0x30B JUMP JUMPDEST JUMPDEST PUSH2 0x4CE DUP5 DUP3 DUP6 ADD PUSH2 0x463 JUMP JUMPDEST SWAP2 POP POP SWAP3 SWAP2 POP POP JUMP JUMPDEST PUSH32 0x4E487B7100000000000000000000000000000000000000000000000000000000 PUSH0 MSTORE PUSH1 0x22 PUSH1 0x4 MSTORE PUSH1 0x24 PUSH0 REVERT JUMPDEST PUSH0 PUSH1 0x2 DUP3 DIV SWAP1 POP PUSH1 0x1 DUP3 AND DUP1 PUSH2 0x51B JUMPI PUSH1 0x7F DUP3 AND SWAP2 POP JUMPDEST PUSH1 0x20 DUP3 LT DUP2 SUB PUSH2 0x52E JUMPI PUSH2 0x52D PUSH2 0x4D7 JUMP JUMPDEST JUMPDEST POP SWAP2 SWAP1 POP JUMP JUMPDEST PUSH32 0x4E487B7100000000000000000000000000000000000000000000000000000000 PUSH0 MSTORE PUSH1 0x11 PUSH1 0x4 MSTORE PUSH1 0x24 PUSH0 REVERT JUMPDEST PUSH0 PUSH2 0x56B DUP3 PUSH2 0x2CD JUMP JUMPDEST SWAP2 POP PUSH2 0x576 DUP4 PUSH2 0x2CD JUMP JUMPDEST SWAP3 POP DUP3 DUP3 MUL PUSH2 0x584 DUP2 PUSH2 0x2CD JUMP JUMPDEST SWAP2 POP DUP3 DUP3 DIV DUP5 EQ DUP4 ISZERO OR PUSH2 0x59B JUMPI PUSH2 0x59A PUSH2 0x534 JUMP JUMPDEST JUMPDEST POP SWAP3 SWAP2 POP POP JUMP JUMPDEST PUSH0 DUP2 SWAP1 POP DUP2 PUSH0 MSTORE PUSH1 0x20 PUSH0 KECCAK256 SWAP1 POP SWAP2 SWAP1 POP JUMP JUMPDEST PUSH0 PUSH1 0x20 PUSH1 0x1F DUP4 ADD DIV SWAP1 POP SWAP2 SWAP1 POP JUMP JUMPDEST PUSH0 DUP3 DUP3 SHL SWAP1 POP SWAP3 SWAP2 POP POP JUMP JUMPDEST PUSH0 PUSH1 0x8 DUP4 MUL PUSH2 0x5FE PUSH32 0xFFFFFFFFFFFFFFFFFFFFFFFFFFFFFFFFFFFFFFFFFFFFFFFFFFFFFFFFFFFFFFFF DUP3 PUSH2 0x5C3 JUMP JUMPDEST PUSH2 0x608 DUP7 DUP4 PUSH2 0x5C3 JUMP JUMPDEST SWAP6 POP DUP1 NOT DUP5 AND SWAP4 POP DUP1 DUP7 AND DUP5 OR SWAP3 POP POP POP SWAP4 SWAP3 POP POP POP JUMP JUMPDEST PUSH0 DUP2 SWAP1 POP SWAP2 SWAP1 POP JUMP JUMPDEST PUSH0 PUSH2 0x643 PUSH2 0x63E PUSH2 0x639 DUP5 PUSH2 0x2CD JUMP JUMPDEST PUSH2 0x620 JUMP JUMPDEST PUSH2 0x2CD JUMP JUMPDEST SWAP1 POP SWAP2 SWAP1 POP JUMP JUMPDEST PUSH0 DUP2 SWAP1 POP SWAP2 SWAP1 POP JUMP JUMPDEST PUSH2 0x65C DUP4 PUSH2 0x629 JUMP JUMPDEST PUSH2 0x670 PUSH2 0x668 DUP3 PUSH2 0x64A JUMP JUMPDEST DUP5 DUP5 SLOAD PUSH2 0x5CF JUMP JUMPDEST DUP3 SSTORE POP POP POP POP JUMP JUMPDEST PUSH0 SWAP1 JUMP JUMPDEST PUSH2 0x684 PUSH2 0x678 JUMP JUMPDEST PUSH2 0x68F DUP2 DUP5 DUP5 PUSH2 0x653 JUMP JUMPDEST POP POP POP JUMP JUMPDEST JUMPDEST DUP2 DUP2 LT ISZERO PUSH2 0x6B2 JUMPI PUSH2 0x6A7 PUSH0 DUP3 PUSH2 0x67C JUMP JUMPDEST PUSH1 0x1 DUP2 ADD SWAP1 POP PUSH2 0x695 JUMP JUMPDEST POP POP JUMP JUMPDEST PUSH1 0x1F DUP3 GT ISZERO PUSH2 0x6F7 JUMPI PUSH2 0x6C8 DUP2 PUSH2 0x5A2 JUMP JUMPDEST PUSH2 0x6D1 DUP5 PUSH2 0x5B4 JUMP JUMPDEST DUP2 ADD PUSH1 0x20 DUP6 LT ISZERO PUSH2 0x6E0 JUMPI DUP2 SWAP1 POP JUMPDEST PUSH2 0x6F4 PUSH2 0x6EC DUP6 PUSH2 0x5B4 JUMP JUMPDEST DUP4 ADD DUP3 PUSH2 0x694 JUMP JUMPDEST POP POP JUMPDEST POP POP POP JUMP JUMPDEST PUSH0 DUP3 DUP3 SHR SWAP1 POP SWAP3 SWAP2 POP POP JUMP JUMPDEST PUSH0 PUSH2 0x717 PUSH0 NOT DUP5 PUSH1 0x8 MUL PUSH2 0x6FC JUMP JUMPDEST NOT DUP1 DUP4 AND SWAP2 POP POP SWAP3 SWAP2 POP POP JUMP JUMPDEST PUSH0 PUSH2 0x72F DUP4 DUP4 PUSH2 0x708 JUMP JUMPDEST SWAP2 POP DUP3 PUSH1 0x2 MUL DUP3 OR SWAP1 POP SWAP3 SWAP2 POP POP JUMP JUMPDEST PUSH2 0x748 DUP3 PUSH2 0x23D JUMP JUMPDEST PUSH8 0xFFFFFFFFFFFFFFFF DUP2 GT ISZERO PUSH2 0x761 JUMPI PUSH2 0x760 PUSH2 0x36C JUMP JUMPDEST JUMPDEST PUSH2 0x76B DUP3 SLOAD PUSH2 0x504 JUMP JUMPDEST PUSH2 0x776 DUP3 DUP3 DUP6 PUSH2 0x6B6 JUMP JUMPDEST PUSH0 PUSH1 0x20 SWAP1 POP PUSH1 0x1F DUP4 GT PUSH1 0x1 DUP2 EQ PUSH2 0x7A7 JUMPI PUSH0 DUP5 ISZERO PUSH2 0x795 JUMPI DUP3 DUP8 ADD MLOAD SWAP1 POP JUMPDEST PUSH2 0x79F DUP6 DUP3 PUSH2 0x724 JUMP JUMPDEST DUP7 SSTORE POP PUSH2 0x806 JUMP JUMPDEST PUSH1 0x1F NOT DUP5 AND PUSH2 0x7B5 DUP7 PUSH2 0x5A2 JUMP JUMPDEST PUSH0 JUMPDEST DUP3 DUP2 LT ISZERO PUSH2 0x7DC JUMPI DUP5 DUP10 ADD MLOAD DUP3 SSTORE PUSH1 0x1 DUP3 ADD SWAP2 POP PUSH1 0x20 DUP6 ADD SWAP5 POP PUSH1 0x20 DUP2 ADD SWAP1 POP PUSH2 0x7B7 JUMP JUMPDEST DUP7 DUP4 LT ISZERO PUSH2 0x7F9 JUMPI DUP5 DUP10 ADD MLOAD PUSH2 0x7F5 PUSH1 0x1F DUP10 AND DUP3 PUSH2 0x708 JUMP JUMPDEST DUP4 SSTORE POP JUMPDEST PUSH1 0x1 PUSH1 0x2 DUP9 MUL ADD DUP9 SSTORE POP POP POP JUMPDEST POP POP POP POP POP POP JUMP JUMPDEST PUSH0 PUSH2 0x818 DUP3 PUSH2 0x2CD JUMP JUMPDEST SWAP2 POP PUSH2 0x823 DUP4 PUSH2 0x2CD JUMP JUMPDEST SWAP3 POP DUP3 DUP3 ADD SWAP1 POP DUP1 DUP3 GT ISZERO PUSH2 0x83B JUMPI PUSH2 0x83A PUSH2 0x534 JUMP JUMPDEST JUMPDEST SWAP3 SWAP2 POP POP JUMP INVALID LOG2 PUSH5 0x6970667358 0x22 SLT KECCAK256 PUSH9 0x2748BF49A3E53B1B43 SWAP9 CALLDATALOAD CALLDATACOPY PUSH16 0xC753D1FFBC4A253C374B7B4992173703 CREATE2 DUP13 PUSH5 0x736F6C6343 STOP ADDMOD BYTE STOP CALLER "
		},
		"gasEstimates": {
			"creation": {
				"codeDepositCost": "433400",
				"executionCost": "466",
				"totalCost": "433866"
			},
			"external": {
				"favoriteNumber()": "2424",
				"getFixedNumber()": "355",
				"getNumber()": "infinite",
				"getXNumber(uint256)": "infinite",
				"name()": "infinite",
				"saveNmae(string)": "infinite",
				"store(uint256)": "22536"
			}
		},
		"methodIdentifiers": {
			"favoriteNumber()": "471f7cdf",
			"getFixedNumber()": "35659805",
			"getNumber()": "f2c9ecd8",
			"getXNumber(uint256)": "42b7cd7a",
			"name()": "06fdde03",
			"saveNmae(string)": "7e4539f1",
			"store(uint256)": "6057361d"
		}
	},
	"abi": [
		{
			"inputs": [],
			"name": "favoriteNumber",
			"outputs": [
				{
					"internalType": "uint256",
					"name": "",
					"type": "uint256"
				}
			],
			"stateMutability": "view",
			"type": "function"
		},
		{
			"inputs": [],
			"name": "getFixedNumber",
			"outputs": [
				{
					"internalType": "uint256",
					"name": "",
					"type": "uint256"
				}
			],
			"stateMutability": "pure",
			"type": "function"
		},
		{
			"inputs": [],
			"name": "getNumber",
			"outputs": [
				{
					"internalType": "uint256",
					"name": "",
					"type": "uint256"
				}
			],
			"stateMutability": "view",
			"type": "function"
		},
		{
			"inputs": [
				{
					"internalType": "uint256",
					"name": "m",
					"type": "uint256"
				}
			],
			"name": "getXNumber",
			"outputs": [
				{
					"internalType": "uint256",
					"name": "",
					"type": "uint256"
				}
			],
			"stateMutability": "view",
			"type": "function"
		},
		{
			"inputs": [],
			"name": "name",
			"outputs": [
				{
					"internalType": "string",
					"name": "",
					"type": "string"
				}
			],
			"stateMutability": "view",
			"type": "function"
		},
		{
			"inputs": [
				{
					"internalType": "string",
					"name": "_name",
					"type": "string"
				}
			],
			"name": "saveNmae",
			"outputs": [],
			"stateMutability": "nonpayable",
			"type": "function"
		},
		{
			"inputs": [
				{
					"internalType": "uint256",
					"name": "number",
					"type": "uint256"
				}
			],
			"name": "store",
			"outputs": [],
			"stateMutability": "nonpayable",
			"type": "function"
		}
	]
}